{
  "_format": "hh-sol-artifact-1",
  "contractName": "Floxyswap",
  "sourceName": "contracts/Floxyswap.sol",
  "abi": [
    {
      "inputs": [
        {
          "internalType": "address",
          "name": "target",
          "type": "address"
        }
      ],
      "name": "AddressEmptyCode",
      "type": "error"
    },
    {
      "inputs": [
        {
          "internalType": "address",
          "name": "account",
          "type": "address"
        }
      ],
      "name": "AddressInsufficientBalance",
      "type": "error"
    },
    {
      "inputs": [],
      "name": "FailedInnerCall",
      "type": "error"
    },
    {
      "inputs": [],
      "name": "InvalidInitialization",
      "type": "error"
    },
    {
      "inputs": [],
      "name": "NotInitializing",
      "type": "error"
    },
    {
      "inputs": [
        {
          "internalType": "address",
          "name": "token",
          "type": "address"
        }
      ],
      "name": "SafeERC20FailedOperation",
      "type": "error"
    },
    {
      "anonymous": false,
      "inputs": [
        {
          "indexed": true,
          "internalType": "address",
          "name": "previousAdmin",
          "type": "address"
        },
        {
          "indexed": true,
          "internalType": "address",
          "name": "newAdmin",
          "type": "address"
        }
      ],
      "name": "AdminTransferred",
      "type": "event"
    },
    {
      "anonymous": false,
      "inputs": [
        {
          "indexed": false,
          "internalType": "uint64",
          "name": "version",
          "type": "uint64"
        }
      ],
      "name": "Initialized",
      "type": "event"
    },
    {
      "anonymous": false,
      "inputs": [
        {
          "indexed": true,
          "internalType": "address",
          "name": "to",
          "type": "address"
        },
        {
          "indexed": false,
          "internalType": "uint256",
          "name": "amount",
          "type": "uint256"
        }
      ],
      "name": "MaticWithdrawn",
      "type": "event"
    },
    {
      "anonymous": false,
      "inputs": [
        {
          "indexed": true,
          "internalType": "address",
          "name": "user",
          "type": "address"
        },
        {
          "indexed": false,
          "internalType": "uint256",
          "name": "amount",
          "type": "uint256"
        },
        {
          "indexed": false,
          "internalType": "uint256",
          "name": "targetTokenAmount",
          "type": "uint256"
        }
      ],
      "name": "TokensSwapped",
      "type": "event"
    },
    {
      "anonymous": false,
      "inputs": [
        {
          "indexed": true,
          "internalType": "address",
          "name": "user",
          "type": "address"
        },
        {
          "indexed": false,
          "internalType": "uint256",
          "name": "amount",
          "type": "uint256"
        },
        {
          "indexed": true,
          "internalType": "address",
          "name": "token",
          "type": "address"
        }
      ],
      "name": "TokensWithdrawn",
      "type": "event"
    },
    {
      "anonymous": false,
      "inputs": [
        {
          "indexed": true,
          "internalType": "address",
          "name": "to",
          "type": "address"
        },
        {
          "indexed": false,
          "internalType": "uint256",
          "name": "amount",
          "type": "uint256"
        }
      ],
      "name": "withdrawETH",
      "type": "event"
    },
    {
      "inputs": [],
      "name": "admin",
      "outputs": [
        {
          "internalType": "address",
          "name": "",
          "type": "address"
        }
      ],
      "stateMutability": "view",
      "type": "function"
    },
    {
      "inputs": [
        {
          "internalType": "uint256",
          "name": "",
          "type": "uint256"
        }
      ],
      "name": "conversionRates",
      "outputs": [
        {
          "internalType": "uint256",
          "name": "",
          "type": "uint256"
        }
      ],
      "stateMutability": "view",
      "type": "function"
    },
    {
      "inputs": [
        {
          "internalType": "address",
          "name": "_admin",
          "type": "address"
        },
        {
          "internalType": "address",
          "name": "_token",
          "type": "address"
        },
        {
          "internalType": "address",
          "name": "_token2",
          "type": "address"
        },
        {
          "internalType": "address",
          "name": "_usdcToken",
          "type": "address"
        },
        {
          "internalType": "address",
          "name": "_matictoken",
          "type": "address"
        },
        {
          "internalType": "uint256[3]",
          "name": "_conversionRates",
          "type": "uint256[3]"
        }
      ],
      "name": "init",
      "outputs": [],
      "stateMutability": "nonpayable",
      "type": "function"
    },
    {
      "inputs": [],
      "name": "matictoken",
      "outputs": [
        {
          "internalType": "contract IERC20",
          "name": "",
          "type": "address"
        }
      ],
      "stateMutability": "view",
      "type": "function"
    },
    {
      "inputs": [
        {
          "internalType": "uint256[]",
          "name": "_conversionRates",
          "type": "uint256[]"
        }
      ],
      "name": "setConversionRates",
      "outputs": [],
      "stateMutability": "nonpayable",
      "type": "function"
    },
    {
      "inputs": [
        {
          "internalType": "uint256",
          "name": "amount",
          "type": "uint256"
        },
        {
          "internalType": "address",
          "name": "targetToken",
          "type": "address"
        }
      ],
      "name": "swapTokens",
      "outputs": [],
      "stateMutability": "nonpayable",
      "type": "function"
    },
    {
      "inputs": [
        {
          "internalType": "uint256",
          "name": "amount",
          "type": "uint256"
        },
        {
          "internalType": "address",
          "name": "targetToken",
          "type": "address"
        }
      ],
      "name": "swapUsdcToToken",
      "outputs": [],
      "stateMutability": "nonpayable",
      "type": "function"
    },
    {
      "inputs": [
        {
          "internalType": "uint256",
          "name": "amount",
          "type": "uint256"
        },
        {
          "internalType": "address",
          "name": "targetToken",
          "type": "address"
        }
      ],
      "name": "swapnativeToToken",
      "outputs": [],
      "stateMutability": "payable",
      "type": "function"
    },
    {
      "inputs": [],
      "name": "token",
      "outputs": [
        {
          "internalType": "contract IERC20",
          "name": "",
          "type": "address"
        }
      ],
      "stateMutability": "view",
      "type": "function"
    },
    {
      "inputs": [],
      "name": "token2",
      "outputs": [
        {
          "internalType": "contract IERC20",
          "name": "",
          "type": "address"
        }
      ],
      "stateMutability": "view",
      "type": "function"
    },
    {
      "inputs": [
        {
          "internalType": "address",
          "name": "newAdmin",
          "type": "address"
        }
      ],
      "name": "transferAdmin",
      "outputs": [],
      "stateMutability": "nonpayable",
      "type": "function"
    },
    {
      "inputs": [],
      "name": "usdcToken",
      "outputs": [
        {
          "internalType": "contract IERC20",
          "name": "",
          "type": "address"
        }
      ],
      "stateMutability": "view",
      "type": "function"
    },
    {
      "inputs": [
        {
          "internalType": "address",
          "name": "tokenAddress",
          "type": "address"
        },
        {
          "internalType": "uint256",
          "name": "amount",
          "type": "uint256"
        }
      ],
      "name": "withdrawToken",
      "outputs": [],
      "stateMutability": "nonpayable",
      "type": "function"
    },
    {
      "inputs": [
        {
          "internalType": "uint256",
          "name": "amount",
          "type": "uint256"
        }
      ],
      "name": "withdraweth",
      "outputs": [],
      "stateMutability": "nonpayable",
      "type": "function"
    },
    {
      "inputs": [
        {
          "internalType": "uint256",
          "name": "amount",
          "type": "uint256"
        }
      ],
      "name": "withdrawmatic",
      "outputs": [],
      "stateMutability": "nonpayable",
      "type": "function"
    },
    {
      "stateMutability": "payable",
      "type": "receive"
    }
  ],
  "bytecode": "0x608060405234801561001057600080fd5b5061218e806100206000396000f3fe6080604052600436106100ec5760003560e01c8063a22175841161008a578063e7f1243c11610059578063e7f1243c146102b4578063f65ea54e146102dd578063f851a4401461031a578063fc0c546a14610345576100f3565b8063a22175841461020e578063a24b626614610239578063dc0fff1214610262578063e39ecdc51461028b576100f3565b80632f3e6a5c116100c65780632f3e6a5c1461017757806375829def146101a05780639364b426146101c95780639e281a98146101e5576100f3565b806311eac855146100f85780631a61cc2a1461012357806325be124e1461014c576100f3565b366100f357005b600080fd5b34801561010457600080fd5b5061010d610370565b60405161011a9190611773565b60405180910390f35b34801561012f57600080fd5b5061014a60048036038101906101459190611931565b610396565b005b34801561015857600080fd5b50610161610482565b60405161016e9190611773565b60405180910390f35b34801561018357600080fd5b5061019e60048036038101906101999190611a69565b6104a8565b005b3480156101ac57600080fd5b506101c760048036038101906101c29190611af7565b610789565b005b6101e360048036038101906101de9190611b24565b610943565b005b3480156101f157600080fd5b5061020c60048036038101906102079190611b64565b610b05565b005b34801561021a57600080fd5b50610223610bdc565b6040516102309190611773565b60405180910390f35b34801561024557600080fd5b50610260600480360381019061025b9190611ba4565b610c02565b005b34801561026e57600080fd5b5061028960048036038101906102849190611b24565b610cfa565b005b34801561029757600080fd5b506102b260048036038101906102ad9190611b24565b610f8a565b005b3480156102c057600080fd5b506102db60048036038101906102d69190611ba4565b611160565b005b3480156102e957600080fd5b5061030460048036038101906102ff9190611ba4565b611258565b6040516103119190611be0565b60405180910390f35b34801561032657600080fd5b5061032f61127c565b60405161033c9190611c0a565b60405180910390f35b34801561035157600080fd5b5061035a6112a0565b6040516103679190611773565b60405180910390f35b600360009054906101000a900473ffffffffffffffffffffffffffffffffffffffff1681565b60008054906101000a900473ffffffffffffffffffffffffffffffffffffffff1673ffffffffffffffffffffffffffffffffffffffff163373ffffffffffffffffffffffffffffffffffffffff1614610424576040517f08c379a000000000000000000000000000000000000000000000000000000000815260040161041b90611c82565b60405180910390fd5b6003815114610468576040517f08c379a000000000000000000000000000000000000000000000000000000000815260040161045f90611d14565b60405180910390fd5b806006908051906020019061047e92919061163d565b5050565b600260009054906101000a900473ffffffffffffffffffffffffffffffffffffffff1681565b60006104b26112c6565b905060008160000160089054906101000a900460ff1615905060008260000160009054906101000a900467ffffffffffffffff1690506000808267ffffffffffffffff161480156105005750825b9050600060018367ffffffffffffffff16148015610535575060003073ffffffffffffffffffffffffffffffffffffffff163b145b905081158015610543575080155b1561057a576040517ff92ee8a900000000000000000000000000000000000000000000000000000000815260040160405180910390fd5b60018560000160006101000a81548167ffffffffffffffff021916908367ffffffffffffffff16021790555083156105ca5760018560000160086101000a81548160ff0219169083151502179055505b8a6000806101000a81548173ffffffffffffffffffffffffffffffffffffffff021916908373ffffffffffffffffffffffffffffffffffffffff16021790555089600160006101000a81548173ffffffffffffffffffffffffffffffffffffffff021916908373ffffffffffffffffffffffffffffffffffffffff16021790555088600260006101000a81548173ffffffffffffffffffffffffffffffffffffffff021916908373ffffffffffffffffffffffffffffffffffffffff16021790555086600460006101000a81548173ffffffffffffffffffffffffffffffffffffffff021916908373ffffffffffffffffffffffffffffffffffffffff16021790555087600360006101000a81548173ffffffffffffffffffffffffffffffffffffffff021916908373ffffffffffffffffffffffffffffffffffffffff16021790555085600690600361071f92919061168a565b50831561077c5760008560000160086101000a81548160ff0219169083151502179055507fc7f505b2f371ae2175ee4913f4499e1f2633a7b5936321eed1cdaeb6115181d260016040516107739190611d83565b60405180910390a15b5050505050505050505050565b60008054906101000a900473ffffffffffffffffffffffffffffffffffffffff1673ffffffffffffffffffffffffffffffffffffffff163373ffffffffffffffffffffffffffffffffffffffff1614610817576040517f08c379a000000000000000000000000000000000000000000000000000000000815260040161080e90611c82565b60405180910390fd5b600073ffffffffffffffffffffffffffffffffffffffff168173ffffffffffffffffffffffffffffffffffffffff1603610886576040517f08c379a000000000000000000000000000000000000000000000000000000000815260040161087d90611dea565b60405180910390fd5b8073ffffffffffffffffffffffffffffffffffffffff1660008054906101000a900473ffffffffffffffffffffffffffffffffffffffff1673ffffffffffffffffffffffffffffffffffffffff167ff8ccb027dfcd135e000e9d45e6cc2d662578a8825d4c45b5e32e0adf67e79ec660405160405180910390a3806000806101000a81548173ffffffffffffffffffffffffffffffffffffffff021916908373ffffffffffffffffffffffffffffffffffffffff16021790555050565b60008211610986576040517f08c379a000000000000000000000000000000000000000000000000000000000815260040161097d90611e56565b60405180910390fd5b8134146109c8576040517f08c379a00000000000000000000000000000000000000000000000000000000081526004016109bf90611ec2565b60405180910390fd5b600062aa36a746036109dd57600090506109f6565b6201388146036109f057600190506109f5565b600290505b5b600060018203610a4457670de0b6b3a764000060068381548110610a1d57610a1c611ee2565b5b906000526020600020015485610a339190611f40565b610a3d9190611fb1565b9050610a84565b670de0b6b3a764000060068381548110610a6157610a60611ee2565b5b906000526020600020015485610a779190611f40565b610a819190611fb1565b90505b610aaf33828573ffffffffffffffffffffffffffffffffffffffff166112ee9092919063ffffffff16565b3373ffffffffffffffffffffffffffffffffffffffff167f18704ae982dcd24a1beeeed3ecf045ab0520d7b7519b97adf3e4f40bf7efe3398583604051610af7929190611fe2565b60405180910390a250505050565b60008111610b48576040517f08c379a0000000000000000000000000000000000000000000000000000000008152600401610b3f90611e56565b60405180910390fd5b610b7333828473ffffffffffffffffffffffffffffffffffffffff166112ee9092919063ffffffff16565b8173ffffffffffffffffffffffffffffffffffffffff163373ffffffffffffffffffffffffffffffffffffffff167f892212fefec48d5ab9985161b9e69f149494b9970bd1981c3dbf712d63f0d59c83604051610bd09190611be0565b60405180910390a35050565b600460009054906101000a900473ffffffffffffffffffffffffffffffffffffffff1681565b60008054906101000a900473ffffffffffffffffffffffffffffffffffffffff1673ffffffffffffffffffffffffffffffffffffffff163373ffffffffffffffffffffffffffffffffffffffff1614610c90576040517f08c379a0000000000000000000000000000000000000000000000000000000008152600401610c8790611c82565b60405180910390fd5b60008054906101000a900473ffffffffffffffffffffffffffffffffffffffff1673ffffffffffffffffffffffffffffffffffffffff166108fc829081150290604051600060405180830381858888f19350505050158015610cf6573d6000803e3d6000fd5b5050565b60008211610d3d576040517f08c379a0000000000000000000000000000000000000000000000000000000008152600401610d3490611e56565b60405180910390fd5b610d8c333084600160009054906101000a900473ffffffffffffffffffffffffffffffffffffffff1673ffffffffffffffffffffffffffffffffffffffff1661136d909392919063ffffffff16565b60008073ffffffffffffffffffffffffffffffffffffffff168273ffffffffffffffffffffffffffffffffffffffff1603610dca5760009050610e0e565b61101073ffffffffffffffffffffffffffffffffffffffff168273ffffffffffffffffffffffffffffffffffffffff1603610e085760019050610e0d565b600290505b5b6000670de0b6b3a764000060068381548110610e2d57610e2c611ee2565b5b906000526020600020015485610e439190611f40565b610e4d9190611fb1565b9050600073ffffffffffffffffffffffffffffffffffffffff168373ffffffffffffffffffffffffffffffffffffffff161480610eb7575061101073ffffffffffffffffffffffffffffffffffffffff168373ffffffffffffffffffffffffffffffffffffffff16145b15610f08573373ffffffffffffffffffffffffffffffffffffffff166108fc829081150290604051600060405180830381858888f19350505050158015610f02573d6000803e3d6000fd5b50610f34565b610f3333828573ffffffffffffffffffffffffffffffffffffffff166112ee9092919063ffffffff16565b5b3373ffffffffffffffffffffffffffffffffffffffff167f18704ae982dcd24a1beeeed3ecf045ab0520d7b7519b97adf3e4f40bf7efe3398583604051610f7c929190611fe2565b60405180910390a250505050565b60008211610fcd576040517f08c379a0000000000000000000000000000000000000000000000000000000008152600401610fc490611e56565b60405180910390fd5b60008073ffffffffffffffffffffffffffffffffffffffff168273ffffffffffffffffffffffffffffffffffffffff160361100b576000905061104f565b61101073ffffffffffffffffffffffffffffffffffffffff168273ffffffffffffffffffffffffffffffffffffffff1603611049576001905061104e565b600290505b5b61109e333085600360009054906101000a900473ffffffffffffffffffffffffffffffffffffffff1673ffffffffffffffffffffffffffffffffffffffff1661136d909392919063ffffffff16565b6000670de0b6b3a7640000600683815481106110bd576110bc611ee2565b5b9060005260206000200154856110d39190611f40565b6110dd9190611fb1565b905061110a33828573ffffffffffffffffffffffffffffffffffffffff166112ee9092919063ffffffff16565b3373ffffffffffffffffffffffffffffffffffffffff167f18704ae982dcd24a1beeeed3ecf045ab0520d7b7519b97adf3e4f40bf7efe3398583604051611152929190611fe2565b60405180910390a250505050565b60008054906101000a900473ffffffffffffffffffffffffffffffffffffffff1673ffffffffffffffffffffffffffffffffffffffff163373ffffffffffffffffffffffffffffffffffffffff16146111ee576040517f08c379a00000000000000000000000000000000000000000000000000000000081526004016111e590611c82565b60405180910390fd5b60008054906101000a900473ffffffffffffffffffffffffffffffffffffffff1673ffffffffffffffffffffffffffffffffffffffff166108fc829081150290604051600060405180830381858888f19350505050158015611254573d6000803e3d6000fd5b5050565b6006818154811061126857600080fd5b906000526020600020016000915090505481565b60008054906101000a900473ffffffffffffffffffffffffffffffffffffffff1681565b600160009054906101000a900473ffffffffffffffffffffffffffffffffffffffff1681565b60007ff0c57e16840df040f15088dc2f81fe391c3923bec73e23a9662efc9c229c6a00905090565b611368838473ffffffffffffffffffffffffffffffffffffffff1663a9059cbb858560405160240161132192919061200b565b604051602081830303815290604052915060e01b6020820180517bffffffffffffffffffffffffffffffffffffffffffffffffffffffff83818316178352505050506113ef565b505050565b6113e9848573ffffffffffffffffffffffffffffffffffffffff166323b872dd8686866040516024016113a293929190612034565b604051602081830303815290604052915060e01b6020820180517bffffffffffffffffffffffffffffffffffffffffffffffffffffffff83818316178352505050506113ef565b50505050565b600061141a828473ffffffffffffffffffffffffffffffffffffffff1661148690919063ffffffff16565b9050600081511415801561143f57508080602001905181019061143d91906120a3565b155b1561148157826040517f5274afe70000000000000000000000000000000000000000000000000000000081526004016114789190611c0a565b60405180910390fd5b505050565b60606114948383600061149c565b905092915050565b6060814710156114e357306040517fcd7860590000000000000000000000000000000000000000000000000000000081526004016114da9190611c0a565b60405180910390fd5b6000808573ffffffffffffffffffffffffffffffffffffffff16848660405161150c9190612141565b60006040518083038185875af1925050503d8060008114611549576040519150601f19603f3d011682016040523d82523d6000602084013e61154e565b606091505b509150915061155e868383611569565b925050509392505050565b60608261157e57611579826115f8565b6115f0565b600082511480156115a6575060008473ffffffffffffffffffffffffffffffffffffffff163b145b156115e857836040517f9996b3150000000000000000000000000000000000000000000000000000000081526004016115df9190611c0a565b60405180910390fd5b8190506115f1565b5b9392505050565b60008151111561160b5780518082602001fd5b6040517f1425ea4200000000000000000000000000000000000000000000000000000000815260040160405180910390fd5b828054828255906000526020600020908101928215611679579160200282015b8281111561167857825182559160200191906001019061165d565b5b50905061168691906116d7565b5090565b8280548282559060005260206000209081019282156116c6579160200282015b828111156116c55782518255916020019190600101906116aa565b5b5090506116d391906116d7565b5090565b5b808211156116f05760008160009055506001016116d8565b5090565b600073ffffffffffffffffffffffffffffffffffffffff82169050919050565b6000819050919050565b600061173961173461172f846116f4565b611714565b6116f4565b9050919050565b600061174b8261171e565b9050919050565b600061175d82611740565b9050919050565b61176d81611752565b82525050565b60006020820190506117886000830184611764565b92915050565b6000604051905090565b600080fd5b600080fd5b600080fd5b6000601f19601f8301169050919050565b7f4e487b7100000000000000000000000000000000000000000000000000000000600052604160045260246000fd5b6117f0826117a7565b810181811067ffffffffffffffff8211171561180f5761180e6117b8565b5b80604052505050565b600061182261178e565b905061182e82826117e7565b919050565b600067ffffffffffffffff82111561184e5761184d6117b8565b5b602082029050602081019050919050565b600080fd5b6000819050919050565b61187781611864565b811461188257600080fd5b50565b6000813590506118948161186e565b92915050565b60006118ad6118a884611833565b611818565b905080838252602082019050602084028301858111156118d0576118cf61185f565b5b835b818110156118f957806118e58882611885565b8452602084019350506020810190506118d2565b5050509392505050565b600082601f830112611918576119176117a2565b5b813561192884826020860161189a565b91505092915050565b60006020828403121561194757611946611798565b5b600082013567ffffffffffffffff8111156119655761196461179d565b5b61197184828501611903565b91505092915050565b6000611985826116f4565b9050919050565b6119958161197a565b81146119a057600080fd5b50565b6000813590506119b28161198c565b92915050565b600067ffffffffffffffff8211156119d3576119d26117b8565b5b602082029050919050565b60006119f16119ec846119b8565b611818565b90508060208402830185811115611a0b57611a0a61185f565b5b835b81811015611a345780611a208882611885565b845260208401935050602081019050611a0d565b5050509392505050565b600082601f830112611a5357611a526117a2565b5b6003611a608482856119de565b91505092915050565b6000806000806000806101008789031215611a8757611a86611798565b5b6000611a9589828a016119a3565b9650506020611aa689828a016119a3565b9550506040611ab789828a016119a3565b9450506060611ac889828a016119a3565b9350506080611ad989828a016119a3565b92505060a0611aea89828a01611a3e565b9150509295509295509295565b600060208284031215611b0d57611b0c611798565b5b6000611b1b848285016119a3565b91505092915050565b60008060408385031215611b3b57611b3a611798565b5b6000611b4985828601611885565b9250506020611b5a858286016119a3565b9150509250929050565b60008060408385031215611b7b57611b7a611798565b5b6000611b89858286016119a3565b9250506020611b9a85828601611885565b9150509250929050565b600060208284031215611bba57611bb9611798565b5b6000611bc884828501611885565b91505092915050565b611bda81611864565b82525050565b6000602082019050611bf56000830184611bd1565b92915050565b611c048161197a565b82525050565b6000602082019050611c1f6000830184611bfb565b92915050565b600082825260208201905092915050565b7f4e6f742074686520636f6e74726163742061646d696e00000000000000000000600082015250565b6000611c6c601683611c25565b9150611c7782611c36565b602082019050919050565b60006020820190508181036000830152611c9b81611c5f565b9050919050565b7f496e76616c696420636f6e76657273696f6e207261746573206172726179206c60008201527f656e677468000000000000000000000000000000000000000000000000000000602082015250565b6000611cfe602583611c25565b9150611d0982611ca2565b604082019050919050565b60006020820190508181036000830152611d2d81611cf1565b9050919050565b6000819050919050565b600067ffffffffffffffff82169050919050565b6000611d6d611d68611d6384611d34565b611714565b611d3e565b9050919050565b611d7d81611d52565b82525050565b6000602082019050611d986000830184611d74565b92915050565b7f496e76616c6964206e65772061646d696e206164647265737300000000000000600082015250565b6000611dd4601983611c25565b9150611ddf82611d9e565b602082019050919050565b60006020820190508181036000830152611e0381611dc7565b9050919050565b7f496e76616c696420616d6f756e74000000000000000000000000000000000000600082015250565b6000611e40600e83611c25565b9150611e4b82611e0a565b602082019050919050565b60006020820190508181036000830152611e6f81611e33565b9050919050565b7f496e636f727265637420616d6f756e742073656e740000000000000000000000600082015250565b6000611eac601583611c25565b9150611eb782611e76565b602082019050919050565b60006020820190508181036000830152611edb81611e9f565b9050919050565b7f4e487b7100000000000000000000000000000000000000000000000000000000600052603260045260246000fd5b7f4e487b7100000000000000000000000000000000000000000000000000000000600052601160045260246000fd5b6000611f4b82611864565b9150611f5683611864565b9250828202611f6481611864565b91508282048414831517611f7b57611f7a611f11565b5b5092915050565b7f4e487b7100000000000000000000000000000000000000000000000000000000600052601260045260246000fd5b6000611fbc82611864565b9150611fc783611864565b925082611fd757611fd6611f82565b5b828204905092915050565b6000604082019050611ff76000830185611bd1565b6120046020830184611bd1565b9392505050565b60006040820190506120206000830185611bfb565b61202d6020830184611bd1565b9392505050565b60006060820190506120496000830186611bfb565b6120566020830185611bfb565b6120636040830184611bd1565b949350505050565b60008115159050919050565b6120808161206b565b811461208b57600080fd5b50565b60008151905061209d81612077565b92915050565b6000602082840312156120b9576120b8611798565b5b60006120c78482850161208e565b91505092915050565b600081519050919050565b600081905092915050565b60005b838110156121045780820151818401526020810190506120e9565b60008484015250505050565b600061211b826120d0565b61212581856120db565b93506121358185602086016120e6565b80840191505092915050565b600061214d8284612110565b91508190509291505056fea264697066735822122098f2af773f71fdbfc6b815ee665e914b32f80281617366da37627f41acc95ad564736f6c63430008140033",
  "linkReferences": {},
  "deployedLinkReferences": {}
}